:100000000C947A000C948C000C948C000C948C0052
:100010000C948C000C948C000C948C000C948C0030
:100020000C948C000C948C000C948C000C948C0020
:100030000C948C000C948C000C948C000C948C0010
:100040000C948C000C948C000C948C000C948C0000
:100050000C948C000C948C000C948C000C948C00F0
:100060000C948C000C948C000C948C000C948C00E0
:100070000C948C000C948C000C941C020C94800248
:100080000C948C000C948C000C948C000C948C00C0
:100090000C948C000C948C000C948C000C948C00B0
:1000A0000C948C000C948C000C948C000C948C00A0
:1000B0000C9435020C948C000C948C000C948C00E5
:1000C0000C948C000C948C000C948C000C948C0080
:1000D0000C948C000C94B4010C948C000C948C0047
:1000E0000C948C000C948C000C948C000C948C0060
:1000F0000C948C0011241FBECFEFCDBFDFE7DEBF15
:1001000020E4A0E0B0E401C01D92AF37B207E1F7F0
:100110000E946D010C9433030C940000E0E0FAE0BF
:100120008FEF9FEF86A397A310A611A6A0E4B4E0DB
:1001300084E016968C93169712A613A688E016965E
:100140008C9381E0808383E38183E0EEF5E0868118
:10015000826086830895CF93C82F8536A8F0A82F94
:10016000B0E0A456B1092FEF3FEF0E94FB0224E656
:1001700030E040E050E00E94DC022093280A3093F7
:10018000290A84E080934604C436A8F4AC2FB0E07A
:10019000A456B1092FEF3FEF0E94FB0224E630E0A6
:1001A00040E050E00E94DC022093280A3093290AA4
:1001B00084E080934504C43639F41092280A1092E2
:1001C000290A84E080934604CF910895CF93C82FE5
:1001D0008536A8F0A82FB0E0A456B1092FEF3FEF65
:1001E0000E94FB0224E630E040E050E00E94DC0286
:1001F00020932A0A30932B0A88E080934604C43661
:10020000A8F4AC2FB0E0A456B1092FEF3FEF0E9445
:10021000FB0224E630E040E050E00E94DC02209344
:100220002A0A30932B0A88E080934504C43639F4B7
:1002300010922A0A10922B0A88E080934604CF91EC
:10024000089585E08093400A0895E0E2FBE087E0AE
:10025000808383E0818391E19483858392E090930E
:10026000540494E490931202809342020895E0E3D0
:10027000FBE087E0808383E0818391E19483858341
:1002800082E08093560486E48093130284E0809396
:10029000440208950E9425010E9437010E94210115
:1002A0000895E0E6F8E089E890E080879187A0E291
:1002B000B4E08C9181608C93858180688583868190
:1002C000806C8683089580916008089590916408F9
:1002D00095FFFCCF8093620808950E9451010E940F
:1002E0008E000E944A01CEE1D0E48CE3888384E64C
:1002F00089838A838EE38B8384E60E94AB008A81A4
:100300000E94E6002FE78AE196E02150804090406D
:10031000E1F700C00000E0E4F4E081818F608183B8
:1003200088E08093210482E40E94660178948091A1
:1003300070408330E0F381E00E9466018CE30E940C
:10034000660180916F400E946601809179400E9411
:10035000660180917D400E946601809177400E94F5
:10036000660110927040E3CF1F920F920FB60F926A
:1003700011240BB60F922F933F934F935F936F937C
:100380007F938F939F93AF93BF93CF93DF93EF931D
:10039000FF9380911E408C3321F010927140109297
:1003A0007040C0917140C33080F4D0E00E9463017E
:1003B000C25EDF4B8883809171408F5F8093714074
:1003C000809170408F5F8093704080917140833046
:1003D000F0F0CEE1D0E489810E94AB008A810E94D6
:1003E000E6008091384080936F4080913440809344
:1003F000794080916A4080937D4080917B408093DA
:10040000774010926A4010927B4010927140FF91A9
:10041000EF91DF91CF91BF91AF919F918F917F919C
:100420006F915F914F913F912F910F900BBE0F9065
:100430000FBE0F901F9018951F920F920FB60F923C
:1004400011240BB60F928F93EF93FF93E0E4F4E047
:10045000818580658187FF91EF918F910F900BBE11
:100460000F900FBE0F901F9018951F920F920FB60E
:100470000F9211248F939F93AF93BF938091360B6C
:1004800081FF12C08FEF9FEFA0E0B0E08093374074
:1004900090933840A0933940B0933A4010926B400B
:1004A00082E08093360B23C08091480488234CF46B
:1004B00081E080936B4080916A408F5F80936A40B7
:1004C00008C08FEF80936B4080916A408150809389
:1004D0006A4080913C0B90913D0BA0E0B0E080938E
:1004E000374090933840A0933940B0933A40BF9141
:1004F000AF919F918F910F900FBE0F901F90189505
:100500001F920F920FB60F9211242F938F939F93E8
:10051000AF93BF938091260B81FF12C08FEF9FEFA7
:10052000A0E0B0E08093334090933440A0933540F6
:10053000B093364010926E4082E08093260B32C01A
:1005400080912C0B90912D0BA0E0B0E08093334074
:1005500090933440A0933540B093364020914804A6
:1005600025FF18C02FEF20936E40B095A095909571
:1005700081959F4FAF4FBF4F80933340909334404E
:10058000A0933540B093364080917B40815080935A
:100590007B4008C081E080936E4080917B408F5FFC
:1005A00080937B40BF91AF919F918F912F910F903E
:1005B0000FBE0F901F901895052E97FB1EF4009408
:1005C0000E94F30257FD07D00E94020307FC03D0EC
:1005D0004EF40C94F30250954095309521953F4F81
:1005E0004F4F5F4F089590958095709561957F4F1F
:1005F0008F4F9F4F08950E942403B7FF0895821BD9
:10060000930B0895A1E21A2EAA1BBB1BFD010DC07E
:10061000AA1FBB1FEE1FFF1FA217B307E407F507B2
:1006200020F0A21BB30BE40BF50B661F771F881F8E
:10063000991F1A9469F760957095809590959B0124
:10064000AC01BD01CF010895A29FB001B39FC001CD
:10065000A39F700D811D1124911DB29F700D811DEE
:0A0660001124911D0895F894FFCFB6
:00000001FF
